{
  "contractName": "Color",
  "abi": [
    {
      "inputs": [],
      "stateMutability": "nonpayable",
      "type": "constructor"
    },
    {
      "anonymous": false,
      "inputs": [
        {
          "indexed": true,
          "internalType": "address",
          "name": "owner",
          "type": "address"
        },
        {
          "indexed": true,
          "internalType": "address",
          "name": "approved",
          "type": "address"
        },
        {
          "indexed": true,
          "internalType": "uint256",
          "name": "tokenId",
          "type": "uint256"
        }
      ],
      "name": "Approval",
      "type": "event"
    },
    {
      "anonymous": false,
      "inputs": [
        {
          "indexed": true,
          "internalType": "address",
          "name": "owner",
          "type": "address"
        },
        {
          "indexed": true,
          "internalType": "address",
          "name": "operator",
          "type": "address"
        },
        {
          "indexed": false,
          "internalType": "bool",
          "name": "approved",
          "type": "bool"
        }
      ],
      "name": "ApprovalForAll",
      "type": "event"
    },
    {
      "anonymous": false,
      "inputs": [
        {
          "indexed": true,
          "internalType": "address",
          "name": "from",
          "type": "address"
        },
        {
          "indexed": true,
          "internalType": "address",
          "name": "to",
          "type": "address"
        },
        {
          "indexed": true,
          "internalType": "uint256",
          "name": "tokenId",
          "type": "uint256"
        }
      ],
      "name": "Transfer",
      "type": "event"
    },
    {
      "inputs": [
        {
          "internalType": "address",
          "name": "to",
          "type": "address"
        },
        {
          "internalType": "uint256",
          "name": "tokenId",
          "type": "uint256"
        }
      ],
      "name": "approve",
      "outputs": [],
      "stateMutability": "nonpayable",
      "type": "function"
    },
    {
      "inputs": [
        {
          "internalType": "address",
          "name": "owner",
          "type": "address"
        }
      ],
      "name": "balanceOf",
      "outputs": [
        {
          "internalType": "uint256",
          "name": "",
          "type": "uint256"
        }
      ],
      "stateMutability": "view",
      "type": "function",
      "constant": true
    },
    {
      "inputs": [
        {
          "internalType": "string",
          "name": "",
          "type": "string"
        }
      ],
      "name": "colors",
      "outputs": [
        {
          "internalType": "address",
          "name": "",
          "type": "address"
        }
      ],
      "stateMutability": "view",
      "type": "function",
      "constant": true
    },
    {
      "inputs": [
        {
          "internalType": "uint256",
          "name": "tokenId",
          "type": "uint256"
        }
      ],
      "name": "getApproved",
      "outputs": [
        {
          "internalType": "address",
          "name": "",
          "type": "address"
        }
      ],
      "stateMutability": "view",
      "type": "function",
      "constant": true
    },
    {
      "inputs": [
        {
          "internalType": "address",
          "name": "owner",
          "type": "address"
        },
        {
          "internalType": "address",
          "name": "operator",
          "type": "address"
        }
      ],
      "name": "isApprovedForAll",
      "outputs": [
        {
          "internalType": "bool",
          "name": "",
          "type": "bool"
        }
      ],
      "stateMutability": "view",
      "type": "function",
      "constant": true
    },
    {
      "inputs": [],
      "name": "name",
      "outputs": [
        {
          "internalType": "string",
          "name": "",
          "type": "string"
        }
      ],
      "stateMutability": "view",
      "type": "function",
      "constant": true
    },
    {
      "inputs": [
        {
          "internalType": "uint256",
          "name": "tokenId",
          "type": "uint256"
        }
      ],
      "name": "ownerOf",
      "outputs": [
        {
          "internalType": "address",
          "name": "",
          "type": "address"
        }
      ],
      "stateMutability": "view",
      "type": "function",
      "constant": true
    },
    {
      "inputs": [
        {
          "internalType": "address",
          "name": "",
          "type": "address"
        },
        {
          "internalType": "uint256",
          "name": "",
          "type": "uint256"
        }
      ],
      "name": "ownersOfColors",
      "outputs": [
        {
          "internalType": "string",
          "name": "",
          "type": "string"
        }
      ],
      "stateMutability": "view",
      "type": "function",
      "constant": true
    },
    {
      "inputs": [
        {
          "internalType": "address",
          "name": "from",
          "type": "address"
        },
        {
          "internalType": "address",
          "name": "to",
          "type": "address"
        },
        {
          "internalType": "uint256",
          "name": "tokenId",
          "type": "uint256"
        }
      ],
      "name": "safeTransferFrom",
      "outputs": [],
      "stateMutability": "nonpayable",
      "type": "function"
    },
    {
      "inputs": [
        {
          "internalType": "address",
          "name": "from",
          "type": "address"
        },
        {
          "internalType": "address",
          "name": "to",
          "type": "address"
        },
        {
          "internalType": "uint256",
          "name": "tokenId",
          "type": "uint256"
        },
        {
          "internalType": "bytes",
          "name": "_data",
          "type": "bytes"
        }
      ],
      "name": "safeTransferFrom",
      "outputs": [],
      "stateMutability": "nonpayable",
      "type": "function"
    },
    {
      "inputs": [
        {
          "internalType": "address",
          "name": "operator",
          "type": "address"
        },
        {
          "internalType": "bool",
          "name": "approved",
          "type": "bool"
        }
      ],
      "name": "setApprovalForAll",
      "outputs": [],
      "stateMutability": "nonpayable",
      "type": "function"
    },
    {
      "inputs": [
        {
          "internalType": "bytes4",
          "name": "interfaceId",
          "type": "bytes4"
        }
      ],
      "name": "supportsInterface",
      "outputs": [
        {
          "internalType": "bool",
          "name": "",
          "type": "bool"
        }
      ],
      "stateMutability": "view",
      "type": "function",
      "constant": true
    },
    {
      "inputs": [],
      "name": "symbol",
      "outputs": [
        {
          "internalType": "string",
          "name": "",
          "type": "string"
        }
      ],
      "stateMutability": "view",
      "type": "function",
      "constant": true
    },
    {
      "inputs": [],
      "name": "tokenId",
      "outputs": [
        {
          "internalType": "uint256",
          "name": "",
          "type": "uint256"
        }
      ],
      "stateMutability": "view",
      "type": "function",
      "constant": true
    },
    {
      "inputs": [
        {
          "internalType": "uint256",
          "name": "",
          "type": "uint256"
        }
      ],
      "name": "tokenIdToColors",
      "outputs": [
        {
          "internalType": "string",
          "name": "",
          "type": "string"
        }
      ],
      "stateMutability": "view",
      "type": "function",
      "constant": true
    },
    {
      "inputs": [
        {
          "internalType": "uint256",
          "name": "tokenId",
          "type": "uint256"
        }
      ],
      "name": "tokenURI",
      "outputs": [
        {
          "internalType": "string",
          "name": "",
          "type": "string"
        }
      ],
      "stateMutability": "view",
      "type": "function",
      "constant": true
    },
    {
      "inputs": [
        {
          "internalType": "address",
          "name": "from",
          "type": "address"
        },
        {
          "internalType": "address",
          "name": "to",
          "type": "address"
        },
        {
          "internalType": "uint256",
          "name": "tokenId",
          "type": "uint256"
        }
      ],
      "name": "transferFrom",
      "outputs": [],
      "stateMutability": "nonpayable",
      "type": "function"
    },
    {
      "inputs": [
        {
          "internalType": "string",
          "name": "_color",
          "type": "string"
        }
      ],
      "name": "mintToken",
      "outputs": [
        {
          "internalType": "uint256",
          "name": "",
          "type": "uint256"
        }
      ],
      "stateMutability": "nonpayable",
      "type": "function"
    },
    {
      "inputs": [],
      "name": "getOwnersOfAColor",
      "outputs": [
        {
          "internalType": "string[]",
          "name": "",
          "type": "string[]"
        }
      ],
      "stateMutability": "view",
      "type": "function",
      "constant": true
    }
  ],
  "bytecode": "0x60806040523480156200001157600080fd5b506040518060400160405280600581526020017f436f6c6f720000000000000000000000000000000000000000000000000000008152506040518060400160405280600581526020017f434f4c4f52000000000000000000000000000000000000000000000000000000815250816000908051906020019062000096929190620000b8565b508060019080519060200190620000af929190620000b8565b505050620001cd565b828054620000c69062000168565b90600052602060002090601f016020900481019282620000ea576000855562000136565b82601f106200010557805160ff191683800117855562000136565b8280016001018555821562000136579182015b828111156200013557825182559160200191906001019062000118565b5b50905062000145919062000149565b5090565b5b80821115620001645760008160009055506001016200014a565b5090565b600060028204905060018216806200018157607f821691505b602082108114156200019857620001976200019e565b5b50919050565b7f4e487b7100000000000000000000000000000000000000000000000000000000600052602260045260246000fd5b612f6a80620001dd6000396000f3fe608060405234801561001057600080fd5b506004361061013e576000357c01000000000000000000000000000000000000000000000000000000009004806340c629fe116100ca578063a22cb4651161008e578063a22cb46514610371578063b32b5c9e1461038d578063b88d4fde146103ab578063c87b56dd146103c7578063e985e9c5146103f75761013e565b806340c629fe146102a757806342842e0e146102d75780636352211e146102f357806370a082311461032357806395d89b41146103535761013e565b8063095ea7b311610111578063095ea7b3146101f157806317d70f7c1461020d57806323b872dd1461022b5780632afeda4c1461024757806333eba49a146102775761013e565b806301ffc9a71461014357806306fdde031461017357806307635ef714610191578063081812fc146101c1575b600080fd5b61015d60048036038101906101589190611f5e565b610427565b60405161016a919061246e565b60405180910390f35b61017b610509565b6040516101889190612489565b60405180910390f35b6101ab60048036038101906101a69190611f1e565b61059b565b6040516101b89190612489565b60405180910390f35b6101db60048036038101906101d69190612001565b610654565b6040516101e891906123e5565b60405180910390f35b61020b60048036038101906102069190611f1e565b6106d9565b005b6102156107f1565b604051610222919061266b565b60405180910390f35b61024560048036038101906102409190611e08565b6107f7565b005b610261600480360381019061025c9190612001565b610857565b60405161026e9190612489565b60405180910390f35b610291600480360381019061028c9190611fb8565b6108f7565b60405161029e919061266b565b60405180910390f35b6102c160048036038101906102bc9190611fb8565b610a9d565b6040516102ce91906123e5565b60405180910390f35b6102f160048036038101906102ec9190611e08565b610ae6565b005b61030d60048036038101906103089190612001565b610b06565b60405161031a91906123e5565b60405180910390f35b61033d60048036038101906103389190611d9b565b610bb8565b60405161034a919061266b565b60405180910390f35b61035b610c70565b6040516103689190612489565b60405180910390f35b61038b60048036038101906103869190611ede565b610d02565b005b610395610e83565b6040516103a2919061244c565b60405180910390f35b6103c560048036038101906103c09190611e5b565b610f99565b005b6103e160048036038101906103dc9190612001565b610ffb565b6040516103ee9190612489565b60405180910390f35b610411600480360381019061040c9190611dc8565b6110a2565b60405161041e919061246e565b60405180910390f35b60007f80ac58cd000000000000000000000000000000000000000000000000000000007bffffffffffffffffffffffffffffffffffffffffffffffffffffffff1916827bffffffffffffffffffffffffffffffffffffffffffffffffffffffff191614806104f257507f5b5e139f000000000000000000000000000000000000000000000000000000007bffffffffffffffffffffffffffffffffffffffffffffffffffffffff1916827bffffffffffffffffffffffffffffffffffffffffffffffffffffffff1916145b80610502575061050182611136565b5b9050919050565b6060600080546105189061290b565b80601f01602080910402602001604051908101604052809291908181526020018280546105449061290b565b80156105915780601f1061056657610100808354040283529160200191610591565b820191906000526020600020905b81548152906001019060200180831161057457829003601f168201915b5050505050905090565b600960205281600052604060002081815481106105b757600080fd5b906000526020600020016000915091505080546105d39061290b565b80601f01602080910402602001604051908101604052809291908181526020018280546105ff9061290b565b801561064c5780601f106106215761010080835404028352916020019161064c565b820191906000526020600020905b81548152906001019060200180831161062f57829003601f168201915b505050505081565b600061065f826111a0565b61069e576040517f08c379a0000000000000000000000000000000000000000000000000000000008152600401610695906125cb565b60405180910390fd5b6004600083815260200190815260200160002060009054906101000a900473ffffffffffffffffffffffffffffffffffffffff169050919050565b60006106e482610b06565b90508073ffffffffffffffffffffffffffffffffffffffff168373ffffffffffffffffffffffffffffffffffffffff161415610755576040517f08c379a000000000000000000000000000000000000000000000000000000000815260040161074c9061262b565b60405180910390fd5b8073ffffffffffffffffffffffffffffffffffffffff1661077461120c565b73ffffffffffffffffffffffffffffffffffffffff1614806107a357506107a28161079d61120c565b6110a2565b5b6107e2576040517f08c379a00000000000000000000000000000000000000000000000000000000081526004016107d99061254b565b60405180910390fd5b6107ec8383611214565b505050565b60065481565b61080861080261120c565b826112cd565b610847576040517f08c379a000000000000000000000000000000000000000000000000000000000815260040161083e9061264b565b60405180910390fd5b6108528383836113ab565b505050565b600760205280600052604060002060009150905080546108769061290b565b80601f01602080910402602001604051908101604052809291908181526020018280546108a29061290b565b80156108ef5780601f106108c4576101008083540402835291602001916108ef565b820191906000526020600020905b8154815290600101906020018083116108d257829003601f168201915b505050505081565b600081600073ffffffffffffffffffffffffffffffffffffffff1660088260405161092291906123aa565b908152602001604051809103902060009054906101000a900473ffffffffffffffffffffffffffffffffffffffff1673ffffffffffffffffffffffffffffffffffffffff161461097157600080fd5b6001600654610980919061279a565b60068190555061099233600654611607565b336008846040516109a391906123aa565b908152602001604051809103902060006101000a81548173ffffffffffffffffffffffffffffffffffffffff021916908373ffffffffffffffffffffffffffffffffffffffff160217905550826007600060065481526020019081526020016000209080519060200190610a18929190611baf565b50600960003373ffffffffffffffffffffffffffffffffffffffff1673ffffffffffffffffffffffffffffffffffffffff16815260200190815260200160002083908060018154018082558091505060019003906000526020600020016000909190919091509080519060200190610a91929190611baf565b50600654915050919050565b6008818051602081018201805184825260208301602085012081835280955050505050506000915054906101000a900473ffffffffffffffffffffffffffffffffffffffff1681565b610b0183838360405180602001604052806000815250610f99565b505050565b6000806002600084815260200190815260200160002060009054906101000a900473ffffffffffffffffffffffffffffffffffffffff169050600073ffffffffffffffffffffffffffffffffffffffff168173ffffffffffffffffffffffffffffffffffffffff161415610baf576040517f08c379a0000000000000000000000000000000000000000000000000000000008152600401610ba69061258b565b60405180910390fd5b80915050919050565b60008073ffffffffffffffffffffffffffffffffffffffff168273ffffffffffffffffffffffffffffffffffffffff161415610c29576040517f08c379a0000000000000000000000000000000000000000000000000000000008152600401610c209061256b565b60405180910390fd5b600360008373ffffffffffffffffffffffffffffffffffffffff1673ffffffffffffffffffffffffffffffffffffffff168152602001908152602001600020549050919050565b606060018054610c7f9061290b565b80601f0160208091040260200160405190810160405280929190818152602001828054610cab9061290b565b8015610cf85780601f10610ccd57610100808354040283529160200191610cf8565b820191906000526020600020905b815481529060010190602001808311610cdb57829003601f168201915b5050505050905090565b610d0a61120c565b73ffffffffffffffffffffffffffffffffffffffff168273ffffffffffffffffffffffffffffffffffffffff161415610d78576040517f08c379a0000000000000000000000000000000000000000000000000000000008152600401610d6f9061250b565b60405180910390fd5b8060056000610d8561120c565b73ffffffffffffffffffffffffffffffffffffffff1673ffffffffffffffffffffffffffffffffffffffff16815260200190815260200160002060008473ffffffffffffffffffffffffffffffffffffffff1673ffffffffffffffffffffffffffffffffffffffff16815260200190815260200160002060006101000a81548160ff0219169083151502179055508173ffffffffffffffffffffffffffffffffffffffff16610e3261120c565b73ffffffffffffffffffffffffffffffffffffffff167f17307eab39ab6107e8899845ad3d59bd9653f200f220920489ca2b5937696c3183604051610e77919061246e565b60405180910390a35050565b6060600960003373ffffffffffffffffffffffffffffffffffffffff1673ffffffffffffffffffffffffffffffffffffffff168152602001908152602001600020805480602002602001604051908101604052809291908181526020016000905b82821015610f90578382906000526020600020018054610f039061290b565b80601f0160208091040260200160405190810160405280929190818152602001828054610f2f9061290b565b8015610f7c5780601f10610f5157610100808354040283529160200191610f7c565b820191906000526020600020905b815481529060010190602001808311610f5f57829003601f168201915b505050505081526020019060010190610ee4565b50505050905090565b610faa610fa461120c565b836112cd565b610fe9576040517f08c379a0000000000000000000000000000000000000000000000000000000008152600401610fe09061264b565b60405180910390fd5b610ff5848484846117d5565b50505050565b6060611006826111a0565b611045576040517f08c379a000000000000000000000000000000000000000000000000000000000815260040161103c9061260b565b60405180910390fd5b600061104f611831565b9050600081511161106f576040518060200160405280600081525061109a565b8061107984611848565b60405160200161108a9291906123c1565b6040516020818303038152906040525b915050919050565b6000600560008473ffffffffffffffffffffffffffffffffffffffff1673ffffffffffffffffffffffffffffffffffffffff16815260200190815260200160002060008373ffffffffffffffffffffffffffffffffffffffff1673ffffffffffffffffffffffffffffffffffffffff16815260200190815260200160002060009054906101000a900460ff16905092915050565b60007f01ffc9a7000000000000000000000000000000000000000000000000000000007bffffffffffffffffffffffffffffffffffffffffffffffffffffffff1916827bffffffffffffffffffffffffffffffffffffffffffffffffffffffff1916149050919050565b60008073ffffffffffffffffffffffffffffffffffffffff166002600084815260200190815260200160002060009054906101000a900473ffffffffffffffffffffffffffffffffffffffff1673ffffffffffffffffffffffffffffffffffffffff1614159050919050565b600033905090565b816004600083815260200190815260200160002060006101000a81548173ffffffffffffffffffffffffffffffffffffffff021916908373ffffffffffffffffffffffffffffffffffffffff160217905550808273ffffffffffffffffffffffffffffffffffffffff1661128783610b06565b73ffffffffffffffffffffffffffffffffffffffff167f8c5be1e5ebec7d5bd14f71427d1e84f3dd0314c0f7b2291e5b200ac8c7c3b92560405160405180910390a45050565b60006112d8826111a0565b611317576040517f08c379a000000000000000000000000000000000000000000000000000000000815260040161130e9061252b565b60405180910390fd5b600061132283610b06565b90508073ffffffffffffffffffffffffffffffffffffffff168473ffffffffffffffffffffffffffffffffffffffff16148061139157508373ffffffffffffffffffffffffffffffffffffffff1661137984610654565b73ffffffffffffffffffffffffffffffffffffffff16145b806113a257506113a181856110a2565b5b91505092915050565b8273ffffffffffffffffffffffffffffffffffffffff166113cb82610b06565b73ffffffffffffffffffffffffffffffffffffffff1614611421576040517f08c379a0000000000000000000000000000000000000000000000000000000008152600401611418906125eb565b60405180910390fd5b600073ffffffffffffffffffffffffffffffffffffffff168273ffffffffffffffffffffffffffffffffffffffff161415611491576040517f08c379a0000000000000000000000000000000000000000000000000000000008152600401611488906124eb565b60405180910390fd5b61149c8383836119c8565b6114a7600082611214565b6001600360008573ffffffffffffffffffffffffffffffffffffffff1673ffffffffffffffffffffffffffffffffffffffff16815260200190815260200160002060008282546114f79190612821565b925050819055506001600360008473ffffffffffffffffffffffffffffffffffffffff1673ffffffffffffffffffffffffffffffffffffffff168152602001908152602001600020600082825461154e919061279a565b92505081905550816002600083815260200190815260200160002060006101000a81548173ffffffffffffffffffffffffffffffffffffffff021916908373ffffffffffffffffffffffffffffffffffffffff160217905550808273ffffffffffffffffffffffffffffffffffffffff168473ffffffffffffffffffffffffffffffffffffffff167fddf252ad1be2c89b69c2b068fc378daa952ba7f163c4a11628f55a4df523b3ef60405160405180910390a4505050565b600073ffffffffffffffffffffffffffffffffffffffff168273ffffffffffffffffffffffffffffffffffffffff161415611677576040517f08c379a000000000000000000000000000000000000000000000000000000000815260040161166e906125ab565b60405180910390fd5b611680816111a0565b156116c0576040517f08c379a00000000000000000000000000000000000000000000000000000000081526004016116b7906124cb565b60405180910390fd5b6116cc600083836119c8565b6001600360008473ffffffffffffffffffffffffffffffffffffffff1673ffffffffffffffffffffffffffffffffffffffff168152602001908152602001600020600082825461171c919061279a565b92505081905550816002600083815260200190815260200160002060006101000a81548173ffffffffffffffffffffffffffffffffffffffff021916908373ffffffffffffffffffffffffffffffffffffffff160217905550808273ffffffffffffffffffffffffffffffffffffffff16600073ffffffffffffffffffffffffffffffffffffffff167fddf252ad1be2c89b69c2b068fc378daa952ba7f163c4a11628f55a4df523b3ef60405160405180910390a45050565b6117e08484846113ab565b6117ec848484846119cd565b61182b576040517f08c379a0000000000000000000000000000000000000000000000000000000008152600401611822906124ab565b60405180910390fd5b50505050565b606060405180602001604052806000815250905090565b60606000821415611890576040518060400160405280600181526020017f300000000000000000000000000000000000000000000000000000000000000081525090506119c3565b600082905060005b600082146118c25780806118ab9061296e565b915050600a826118bb91906127f0565b9150611898565b60008167ffffffffffffffff8111156118de576118dd612aa4565b5b6040519080825280601f01601f1916602001820160405280156119105781602001600182028036833780820191505090505b5090505b600085146119bc576001826119299190612821565b9150600a8561193891906129b7565b6030611944919061279a565b7f01000000000000000000000000000000000000000000000000000000000000000281838151811061197957611978612a75565b5b60200101907effffffffffffffffffffffffffffffffffffffffffffffffffffffffffffff1916908160001a905350600a856119b591906127f0565b9450611914565b8093505050505b919050565b505050565b60006119ee8473ffffffffffffffffffffffffffffffffffffffff16611b9c565b15611b8f578373ffffffffffffffffffffffffffffffffffffffff1663150b7a02611a1761120c565b8786866040518563ffffffff167c0100000000000000000000000000000000000000000000000000000000028152600401611a559493929190612400565b602060405180830381600087803b158015611a6f57600080fd5b505af1925050508015611aa057506040513d601f19601f82011682018060405250810190611a9d9190611f8b565b60015b611b23573d8060008114611ad0576040519150601f19603f3d011682016040523d82523d6000602084013e611ad5565b606091505b50600081511415611b1b576040517f08c379a0000000000000000000000000000000000000000000000000000000008152600401611b12906124ab565b60405180910390fd5b805181602001fd5b63150b7a027c0100000000000000000000000000000000000000000000000000000000027bffffffffffffffffffffffffffffffffffffffffffffffffffffffff1916817bffffffffffffffffffffffffffffffffffffffffffffffffffffffff191614915050611b94565b600190505b949350505050565b600080823b905060008111915050919050565b828054611bbb9061290b565b90600052602060002090601f016020900481019282611bdd5760008555611c24565b82601f10611bf657805160ff1916838001178555611c24565b82800160010185558215611c24579182015b82811115611c23578251825591602001919060010190611c08565b5b509050611c319190611c35565b5090565b5b80821115611c4e576000816000905550600101611c36565b5090565b6000611c65611c60846126ab565b612686565b905082815260208101848484011115611c8157611c80612ad8565b5b611c8c8482856128c9565b509392505050565b6000611ca7611ca2846126dc565b612686565b905082815260208101848484011115611cc357611cc2612ad8565b5b611cce8482856128c9565b509392505050565b600081359050611ce581612ed8565b92915050565b600081359050611cfa81612eef565b92915050565b600081359050611d0f81612f06565b92915050565b600081519050611d2481612f06565b92915050565b600082601f830112611d3f57611d3e612ad3565b5b8135611d4f848260208601611c52565b91505092915050565b600082601f830112611d6d57611d6c612ad3565b5b8135611d7d848260208601611c94565b91505092915050565b600081359050611d9581612f1d565b92915050565b600060208284031215611db157611db0612ae2565b5b6000611dbf84828501611cd6565b91505092915050565b60008060408385031215611ddf57611dde612ae2565b5b6000611ded85828601611cd6565b9250506020611dfe85828601611cd6565b9150509250929050565b600080600060608486031215611e2157611e20612ae2565b5b6000611e2f86828701611cd6565b9350506020611e4086828701611cd6565b9250506040611e5186828701611d86565b9150509250925092565b60008060008060808587031215611e7557611e74612ae2565b5b6000611e8387828801611cd6565b9450506020611e9487828801611cd6565b9350506040611ea587828801611d86565b925050606085013567ffffffffffffffff811115611ec657611ec5612add565b5b611ed287828801611d2a565b91505092959194509250565b60008060408385031215611ef557611ef4612ae2565b5b6000611f0385828601611cd6565b9250506020611f1485828601611ceb565b9150509250929050565b60008060408385031215611f3557611f34612ae2565b5b6000611f4385828601611cd6565b9250506020611f5485828601611d86565b9150509250929050565b600060208284031215611f7457611f73612ae2565b5b6000611f8284828501611d00565b91505092915050565b600060208284031215611fa157611fa0612ae2565b5b6000611faf84828501611d15565b91505092915050565b600060208284031215611fce57611fcd612ae2565b5b600082013567ffffffffffffffff811115611fec57611feb612add565b5b611ff884828501611d58565b91505092915050565b60006020828403121561201757612016612ae2565b5b600061202584828501611d86565b91505092915050565b600061203a838361210e565b905092915050565b61204b81612855565b82525050565b600061205c8261271d565b612066818561274b565b9350836020820285016120788561270d565b8060005b858110156120b45784840389528151612095858261202e565b94506120a08361273e565b925060208a0199505060018101905061207c565b50829750879550505050505092915050565b6120cf81612867565b82525050565b60006120e082612728565b6120ea818561275c565b93506120fa8185602086016128d8565b61210381612ae7565b840191505092915050565b600061211982612733565b612123818561276d565b93506121338185602086016128d8565b61213c81612ae7565b840191505092915050565b600061215282612733565b61215c818561277e565b935061216c8185602086016128d8565b61217581612ae7565b840191505092915050565b600061218b82612733565b612195818561278f565b93506121a58185602086016128d8565b80840191505092915050565b60006121be60328361277e565b91506121c982612af8565b604082019050919050565b60006121e1601c8361277e565b91506121ec82612b47565b602082019050919050565b600061220460248361277e565b915061220f82612b70565b604082019050919050565b600061222760198361277e565b915061223282612bbf565b602082019050919050565b600061224a602c8361277e565b915061225582612be8565b604082019050919050565b600061226d60388361277e565b915061227882612c37565b604082019050919050565b6000612290602a8361277e565b915061229b82612c86565b604082019050919050565b60006122b360298361277e565b91506122be82612cd5565b604082019050919050565b60006122d660208361277e565b91506122e182612d24565b602082019050919050565b60006122f9602c8361277e565b915061230482612d4d565b604082019050919050565b600061231c60298361277e565b915061232782612d9c565b604082019050919050565b600061233f602f8361277e565b915061234a82612deb565b604082019050919050565b600061236260218361277e565b915061236d82612e3a565b604082019050919050565b600061238560318361277e565b915061239082612e89565b604082019050919050565b6123a4816128bf565b82525050565b60006123b68284612180565b915081905092915050565b60006123cd8285612180565b91506123d98284612180565b91508190509392505050565b60006020820190506123fa6000830184612042565b92915050565b60006080820190506124156000830187612042565b6124226020830186612042565b61242f604083018561239b565b818103606083015261244181846120d5565b905095945050505050565b600060208201905081810360008301526124668184612051565b905092915050565b600060208201905061248360008301846120c6565b92915050565b600060208201905081810360008301526124a38184612147565b905092915050565b600060208201905081810360008301526124c4816121b1565b9050919050565b600060208201905081810360008301526124e4816121d4565b9050919050565b60006020820190508181036000830152612504816121f7565b9050919050565b600060208201905081810360008301526125248161221a565b9050919050565b600060208201905081810360008301526125448161223d565b9050919050565b6000602082019050818103600083015261256481612260565b9050919050565b6000602082019050818103600083015261258481612283565b9050919050565b600060208201905081810360008301526125a4816122a6565b9050919050565b600060208201905081810360008301526125c4816122c9565b9050919050565b600060208201905081810360008301526125e4816122ec565b9050919050565b600060208201905081810360008301526126048161230f565b9050919050565b6000602082019050818103600083015261262481612332565b9050919050565b6000602082019050818103600083015261264481612355565b9050919050565b6000602082019050818103600083015261266481612378565b9050919050565b6000602082019050612680600083018461239b565b92915050565b60006126906126a1565b905061269c828261293d565b919050565b6000604051905090565b600067ffffffffffffffff8211156126c6576126c5612aa4565b5b6126cf82612ae7565b9050602081019050919050565b600067ffffffffffffffff8211156126f7576126f6612aa4565b5b61270082612ae7565b9050602081019050919050565b6000819050602082019050919050565b600081519050919050565b600081519050919050565b600081519050919050565b6000602082019050919050565b600082825260208201905092915050565b600082825260208201905092915050565b600082825260208201905092915050565b600082825260208201905092915050565b600081905092915050565b60006127a5826128bf565b91506127b0836128bf565b9250827fffffffffffffffffffffffffffffffffffffffffffffffffffffffffffffffff038211156127e5576127e46129e8565b5b828201905092915050565b60006127fb826128bf565b9150612806836128bf565b92508261281657612815612a17565b5b828204905092915050565b600061282c826128bf565b9150612837836128bf565b92508282101561284a576128496129e8565b5b828203905092915050565b60006128608261289f565b9050919050565b60008115159050919050565b60007fffffffff0000000000000000000000000000000000000000000000000000000082169050919050565b600073ffffffffffffffffffffffffffffffffffffffff82169050919050565b6000819050919050565b82818337600083830152505050565b60005b838110156128f65780820151818401526020810190506128db565b83811115612905576000848401525b50505050565b6000600282049050600182168061292357607f821691505b6020821081141561293757612936612a46565b5b50919050565b61294682612ae7565b810181811067ffffffffffffffff8211171561296557612964612aa4565b5b80604052505050565b6000612979826128bf565b91507fffffffffffffffffffffffffffffffffffffffffffffffffffffffffffffffff8214156129ac576129ab6129e8565b5b600182019050919050565b60006129c2826128bf565b91506129cd836128bf565b9250826129dd576129dc612a17565b5b828206905092915050565b7f4e487b7100000000000000000000000000000000000000000000000000000000600052601160045260246000fd5b7f4e487b7100000000000000000000000000000000000000000000000000000000600052601260045260246000fd5b7f4e487b7100000000000000000000000000000000000000000000000000000000600052602260045260246000fd5b7f4e487b7100000000000000000000000000000000000000000000000000000000600052603260045260246000fd5b7f4e487b7100000000000000000000000000000000000000000000000000000000600052604160045260246000fd5b600080fd5b600080fd5b600080fd5b600080fd5b6000601f19601f8301169050919050565b7f4552433732313a207472616e7366657220746f206e6f6e20455243373231526560008201527f63656976657220696d706c656d656e7465720000000000000000000000000000602082015250565b7f4552433732313a20746f6b656e20616c7265616479206d696e74656400000000600082015250565b7f4552433732313a207472616e7366657220746f20746865207a65726f2061646460008201527f7265737300000000000000000000000000000000000000000000000000000000602082015250565b7f4552433732313a20617070726f766520746f2063616c6c657200000000000000600082015250565b7f4552433732313a206f70657261746f7220717565727920666f72206e6f6e657860008201527f697374656e7420746f6b656e0000000000000000000000000000000000000000602082015250565b7f4552433732313a20617070726f76652063616c6c6572206973206e6f74206f7760008201527f6e6572206e6f7220617070726f76656420666f7220616c6c0000000000000000602082015250565b7f4552433732313a2062616c616e636520717565727920666f7220746865207a6560008201527f726f206164647265737300000000000000000000000000000000000000000000602082015250565b7f4552433732313a206f776e657220717565727920666f72206e6f6e657869737460008201527f656e7420746f6b656e0000000000000000000000000000000000000000000000602082015250565b7f4552433732313a206d696e7420746f20746865207a65726f2061646472657373600082015250565b7f4552433732313a20617070726f76656420717565727920666f72206e6f6e657860008201527f697374656e7420746f6b656e0000000000000000000000000000000000000000602082015250565b7f4552433732313a207472616e73666572206f6620746f6b656e2074686174206960008201527f73206e6f74206f776e0000000000000000000000000000000000000000000000602082015250565b7f4552433732314d657461646174613a2055524920717565727920666f72206e6f60008201527f6e6578697374656e7420746f6b656e0000000000000000000000000000000000602082015250565b7f4552433732313a20617070726f76616c20746f2063757272656e74206f776e6560008201527f7200000000000000000000000000000000000000000000000000000000000000602082015250565b7f4552433732313a207472616e736665722063616c6c6572206973206e6f74206f60008201527f776e6572206e6f7220617070726f766564000000000000000000000000000000602082015250565b612ee181612855565b8114612eec57600080fd5b50565b612ef881612867565b8114612f0357600080fd5b50565b612f0f81612873565b8114612f1a57600080fd5b50565b612f26816128bf565b8114612f3157600080fd5b5056fea2646970667358221220fe3ea829dec0f3cb35e7a91f8f5c1092cd9e1e75e17542c960d7df6f2de3d51064736f6c63430008070033",
  "immutableReferences": {},
  "source": "pragma solidity ^0.8.0;\n\nimport \"@openzeppelin/contracts/token/ERC721/extensions/ERC721URIStorage.sol\";\n\n\ncontract Color is ERC721{\n    uint256 public tokenId;\n    mapping(uint256 => string) public tokenIdToColors;\n    mapping(string => address) public colors;\n    mapping(address => string[]) public ownersOfColors;\n\n    constructor() ERC721(\"Color\", \"COLOR\"){\n    }\n\n    modifier newColor(string memory _color){\n        require(colors[_color] == address(0));\n        _;\n    }\n\n    function mintToken(string memory _color) external newColor(_color) returns(uint256){\n\n        tokenId = tokenId + 1;\n\n        _mint(msg.sender, tokenId);\n\n        colors[_color] = msg.sender;\n        tokenIdToColors[tokenId] = _color;\n        ownersOfColors[msg.sender].push(_color);\n        return tokenId;\n    }\n\n    function getOwnersOfAColor() view external returns(string[] memory){\n        return ownersOfColors[msg.sender];\n    }\n}",
  "sourcePath": "/Users/enriavil1/Desktop/project/colorserc721/contracts/Color.sol",
  "compiler": {
    "name": "solc",
    "version": "0.8.7+commit.e28d00a7.Emscripten.clang"
  },
  "schemaVersion": "3.4.1",
  "updatedAt": "2021-09-02T23:46:50.501Z",
  "networkType": "ethereum",
  "devdoc": {
    "kind": "dev",
    "methods": {
      "approve(address,uint256)": {
        "details": "See {IERC721-approve}."
      },
      "balanceOf(address)": {
        "details": "See {IERC721-balanceOf}."
      },
      "getApproved(uint256)": {
        "details": "See {IERC721-getApproved}."
      },
      "isApprovedForAll(address,address)": {
        "details": "See {IERC721-isApprovedForAll}."
      },
      "name()": {
        "details": "See {IERC721Metadata-name}."
      },
      "ownerOf(uint256)": {
        "details": "See {IERC721-ownerOf}."
      },
      "safeTransferFrom(address,address,uint256)": {
        "details": "See {IERC721-safeTransferFrom}."
      },
      "safeTransferFrom(address,address,uint256,bytes)": {
        "details": "See {IERC721-safeTransferFrom}."
      },
      "setApprovalForAll(address,bool)": {
        "details": "See {IERC721-setApprovalForAll}."
      },
      "supportsInterface(bytes4)": {
        "details": "See {IERC165-supportsInterface}."
      },
      "symbol()": {
        "details": "See {IERC721Metadata-symbol}."
      },
      "tokenURI(uint256)": {
        "details": "See {IERC721Metadata-tokenURI}."
      },
      "transferFrom(address,address,uint256)": {
        "details": "See {IERC721-transferFrom}."
      }
    },
    "version": 1
  },
  "userdoc": {
    "kind": "user",
    "methods": {},
    "version": 1
  }
}